{
  "_format": "hh-sol-artifact-1",
  "contractName": "YieldMvp",
  "sourceName": "contracts/main.sol",
  "abi": [
    {
      "inputs": [],
      "stateMutability": "nonpayable",
      "type": "constructor"
    },
    {
      "anonymous": false,
      "inputs": [
        {
          "indexed": false,
          "internalType": "uint256",
          "name": "farmId",
          "type": "uint256"
        },
        {
          "indexed": false,
          "internalType": "address",
          "name": "farmer",
          "type": "address"
        },
        {
          "indexed": false,
          "internalType": "uint256",
          "name": "budget",
          "type": "uint256"
        },
        {
          "indexed": false,
          "internalType": "uint256",
          "name": "farmSize",
          "type": "uint256"
        },
        {
          "indexed": false,
          "internalType": "uint256",
          "name": "insuranceAmount",
          "type": "uint256"
        },
        {
          "indexed": false,
          "internalType": "uint256",
          "name": "durationDays",
          "type": "uint256"
        }
      ],
      "name": "FarmCreated",
      "type": "event"
    },
    {
      "anonymous": false,
      "inputs": [
        {
          "indexed": true,
          "internalType": "address",
          "name": "farmerAddress",
          "type": "address"
        },
        {
          "indexed": false,
          "internalType": "string",
          "name": "firstName",
          "type": "string"
        },
        {
          "indexed": false,
          "internalType": "string",
          "name": "lastName",
          "type": "string"
        }
      ],
      "name": "FarmerRegistered",
      "type": "event"
    },
    {
      "anonymous": false,
      "inputs": [
        {
          "indexed": true,
          "internalType": "address",
          "name": "investorAddress",
          "type": "address"
        },
        {
          "indexed": false,
          "internalType": "string",
          "name": "firstName",
          "type": "string"
        },
        {
          "indexed": false,
          "internalType": "string",
          "name": "lastName",
          "type": "string"
        }
      ],
      "name": "InvestorRegistered",
      "type": "event"
    },
    {
      "anonymous": false,
      "inputs": [
        {
          "indexed": true,
          "internalType": "uint256",
          "name": "farmId",
          "type": "uint256"
        },
        {
          "indexed": false,
          "internalType": "uint256",
          "name": "milestoneIndex",
          "type": "uint256"
        },
        {
          "indexed": false,
          "internalType": "uint256",
          "name": "amount",
          "type": "uint256"
        },
        {
          "indexed": false,
          "internalType": "uint256",
          "name": "remainingEscrow",
          "type": "uint256"
        }
      ],
      "name": "MilestoneReleased",
      "type": "event"
    },
    {
      "anonymous": false,
      "inputs": [
        {
          "indexed": false,
          "internalType": "address",
          "name": "investor",
          "type": "address"
        },
        {
          "indexed": false,
          "internalType": "uint256",
          "name": "amount",
          "type": "uint256"
        }
      ],
      "name": "ROIAllocated",
      "type": "event"
    },
    {
      "anonymous": false,
      "inputs": [
        {
          "indexed": false,
          "internalType": "address",
          "name": "investor",
          "type": "address"
        },
        {
          "indexed": false,
          "internalType": "uint256",
          "name": "amount",
          "type": "uint256"
        }
      ],
      "name": "ROIWithdrawn",
      "type": "event"
    },
    {
      "anonymous": false,
      "inputs": [
        {
          "indexed": false,
          "internalType": "uint256",
          "name": "farmId",
          "type": "uint256"
        },
        {
          "indexed": false,
          "internalType": "uint256",
          "name": "amount",
          "type": "uint256"
        }
      ],
      "name": "RepaymentMade",
      "type": "event"
    },
    {
      "anonymous": false,
      "inputs": [
        {
          "indexed": false,
          "internalType": "uint256",
          "name": "farmId",
          "type": "uint256"
        },
        {
          "indexed": false,
          "internalType": "address",
          "name": "investor",
          "type": "address"
        },
        {
          "indexed": false,
          "internalType": "uint256",
          "name": "shares",
          "type": "uint256"
        },
        {
          "indexed": false,
          "internalType": "uint256",
          "name": "amount",
          "type": "uint256"
        }
      ],
      "name": "SharesPurchased",
      "type": "event"
    },
    {
      "inputs": [
        {
          "internalType": "uint256",
          "name": "_farmId",
          "type": "uint256"
        },
        {
          "internalType": "uint256",
          "name": "_amount_shares",
          "type": "uint256"
        }
      ],
      "name": "buyShares",
      "outputs": [],
      "stateMutability": "payable",
      "type": "function"
    },
    {
      "inputs": [
        {
          "internalType": "uint256",
          "name": "_budget",
          "type": "uint256"
        },
        {
          "internalType": "uint256",
          "name": "_farmSize",
          "type": "uint256"
        }
      ],
      "name": "calculateInsurance",
      "outputs": [
        {
          "internalType": "uint256",
          "name": "",
          "type": "uint256"
        }
      ],
      "stateMutability": "pure",
      "type": "function"
    },
    {
      "inputs": [
        {
          "internalType": "uint256",
          "name": "_budget",
          "type": "uint256"
        },
        {
          "internalType": "uint256",
          "name": "_farmSize",
          "type": "uint256"
        },
        {
          "internalType": "uint256",
          "name": "_totalShares",
          "type": "uint256"
        },
        {
          "internalType": "uint256",
          "name": "_durationDays",
          "type": "uint256"
        },
        {
          "internalType": "string",
          "name": "_description",
          "type": "string"
        }
      ],
      "name": "createFarm",
      "outputs": [],
      "stateMutability": "nonpayable",
      "type": "function"
    },
    {
      "inputs": [
        {
          "internalType": "uint256",
          "name": "",
          "type": "uint256"
        }
      ],
      "name": "farmIds",
      "outputs": [
        {
          "internalType": "uint256",
          "name": "",
          "type": "uint256"
        }
      ],
      "stateMutability": "view",
      "type": "function"
    },
    {
      "inputs": [
        {
          "internalType": "uint256",
          "name": "",
          "type": "uint256"
        }
      ],
      "name": "farmerAddresses",
      "outputs": [
        {
          "internalType": "address",
          "name": "",
          "type": "address"
        }
      ],
      "stateMutability": "view",
      "type": "function"
    },
    {
      "inputs": [
        {
          "internalType": "uint256",
          "name": "_farmId",
          "type": "uint256"
        }
      ],
      "name": "farmerMakeRepayment",
      "outputs": [],
      "stateMutability": "payable",
      "type": "function"
    },
    {
      "inputs": [
        {
          "internalType": "address",
          "name": "",
          "type": "address"
        }
      ],
      "name": "farmers",
      "outputs": [
        {
          "internalType": "string",
          "name": "firstName",
          "type": "string"
        },
        {
          "internalType": "string",
          "name": "lastName",
          "type": "string"
        },
        {
          "internalType": "string",
          "name": "name",
          "type": "string"
        },
        {
          "internalType": "string",
          "name": "location",
          "type": "string"
        },
        {
          "internalType": "bool",
          "name": "isRegistered",
          "type": "bool"
        }
      ],
      "stateMutability": "view",
      "type": "function"
    },
    {
      "inputs": [],
      "name": "getAllFarmers",
      "outputs": [
        {
          "components": [
            {
              "internalType": "string",
              "name": "firstName",
              "type": "string"
            },
            {
              "internalType": "string",
              "name": "lastName",
              "type": "string"
            },
            {
              "internalType": "string",
              "name": "name",
              "type": "string"
            },
            {
              "internalType": "string",
              "name": "location",
              "type": "string"
            },
            {
              "internalType": "bool",
              "name": "isRegistered",
              "type": "bool"
            }
          ],
          "internalType": "struct YieldMvp.Farmer[]",
          "name": "",
          "type": "tuple[]"
        }
      ],
      "stateMutability": "view",
      "type": "function"
    },
    {
      "inputs": [],
      "name": "getAllFarms",
      "outputs": [
        {
          "internalType": "uint256[]",
          "name": "",
          "type": "uint256[]"
        }
      ],
      "stateMutability": "view",
      "type": "function"
    },
    {
      "inputs": [
        {
          "internalType": "uint256",
          "name": "_farmId",
          "type": "uint256"
        }
      ],
      "name": "getFarmBasicDetails",
      "outputs": [
        {
          "internalType": "uint256",
          "name": "id",
          "type": "uint256"
        },
        {
          "internalType": "address",
          "name": "farmerAddr",
          "type": "address"
        },
        {
          "internalType": "uint256",
          "name": "budget",
          "type": "uint256"
        },
        {
          "internalType": "uint256",
          "name": "farmSize",
          "type": "uint256"
        },
        {
          "internalType": "uint256",
          "name": "insuranceAmount",
          "type": "uint256"
        },
        {
          "internalType": "uint256",
          "name": "totalShares",
          "type": "uint256"
        },
        {
          "internalType": "uint256",
          "name": "sharePrice",
          "type": "uint256"
        },
        {
          "internalType": "uint256",
          "name": "totalInvested",
          "type": "uint256"
        },
        {
          "internalType": "bool",
          "name": "isFunded",
          "type": "bool"
        }
      ],
      "stateMutability": "view",
      "type": "function"
    },
    {
      "inputs": [
        {
          "internalType": "uint256",
          "name": "_farmId",
          "type": "uint256"
        }
      ],
      "name": "getFarmDescription",
      "outputs": [
        {
          "internalType": "string",
          "name": "",
          "type": "string"
        }
      ],
      "stateMutability": "view",
      "type": "function"
    },
    {
      "inputs": [
        {
          "internalType": "uint256",
          "name": "_farmId",
          "type": "uint256"
        }
      ],
      "name": "getFarmInvestors",
      "outputs": [
        {
          "internalType": "address[]",
          "name": "",
          "type": "address[]"
        }
      ],
      "stateMutability": "view",
      "type": "function"
    },
    {
      "inputs": [
        {
          "internalType": "uint256",
          "name": "_farmId",
          "type": "uint256"
        }
      ],
      "name": "getFarmMilestoneDetails",
      "outputs": [
        {
          "internalType": "uint256",
          "name": "escrowBalance",
          "type": "uint256"
        },
        {
          "internalType": "uint256",
          "name": "durationDays",
          "type": "uint256"
        },
        {
          "internalType": "uint256",
          "name": "milestoneCount",
          "type": "uint256"
        },
        {
          "internalType": "uint256",
          "name": "periodSeconds",
          "type": "uint256"
        },
        {
          "internalType": "uint256",
          "name": "milestonesReleased",
          "type": "uint256"
        },
        {
          "internalType": "uint256",
          "name": "startTime",
          "type": "uint256"
        }
      ],
      "stateMutability": "view",
      "type": "function"
    },
    {
      "inputs": [
        {
          "internalType": "uint256",
          "name": "_farmId",
          "type": "uint256"
        },
        {
          "internalType": "address",
          "name": "_investor",
          "type": "address"
        }
      ],
      "name": "getInvestorShares",
      "outputs": [
        {
          "internalType": "uint256",
          "name": "",
          "type": "uint256"
        }
      ],
      "stateMutability": "view",
      "type": "function"
    },
    {
      "inputs": [
        {
          "internalType": "address",
          "name": "",
          "type": "address"
        }
      ],
      "name": "investors",
      "outputs": [
        {
          "internalType": "string",
          "name": "firstName",
          "type": "string"
        },
        {
          "internalType": "string",
          "name": "lastName",
          "type": "string"
        },
        {
          "internalType": "string",
          "name": "name",
          "type": "string"
        },
        {
          "internalType": "string",
          "name": "country",
          "type": "string"
        },
        {
          "internalType": "bool",
          "name": "isRegistered",
          "type": "bool"
        }
      ],
      "stateMutability": "view",
      "type": "function"
    },
    {
      "inputs": [],
      "name": "nextFarmId",
      "outputs": [
        {
          "internalType": "uint256",
          "name": "",
          "type": "uint256"
        }
      ],
      "stateMutability": "view",
      "type": "function"
    },
    {
      "inputs": [],
      "name": "owner",
      "outputs": [
        {
          "internalType": "address",
          "name": "",
          "type": "address"
        }
      ],
      "stateMutability": "view",
      "type": "function"
    },
    {
      "inputs": [
        {
          "internalType": "string",
          "name": "_firstName",
          "type": "string"
        },
        {
          "internalType": "string",
          "name": "_lastName",
          "type": "string"
        },
        {
          "internalType": "string",
          "name": "_location",
          "type": "string"
        }
      ],
      "name": "registerFarmer",
      "outputs": [],
      "stateMutability": "nonpayable",
      "type": "function"
    },
    {
      "inputs": [
        {
          "internalType": "string",
          "name": "_firstName",
          "type": "string"
        },
        {
          "internalType": "string",
          "name": "_lastName",
          "type": "string"
        },
        {
          "internalType": "string",
          "name": "_country",
          "type": "string"
        }
      ],
      "name": "registerInvestor",
      "outputs": [],
      "stateMutability": "nonpayable",
      "type": "function"
    },
    {
      "inputs": [
        {
          "internalType": "uint256",
          "name": "_farmId",
          "type": "uint256"
        }
      ],
      "name": "releaseMilestone",
      "outputs": [],
      "stateMutability": "nonpayable",
      "type": "function"
    },
    {
      "inputs": [
        {
          "internalType": "address",
          "name": "",
          "type": "address"
        }
      ],
      "name": "roiBalances",
      "outputs": [
        {
          "internalType": "uint256",
          "name": "",
          "type": "uint256"
        }
      ],
      "stateMutability": "view",
      "type": "function"
    },
    {
      "inputs": [],
      "name": "withdrawROI",
      "outputs": [],
      "stateMutability": "nonpayable",
      "type": "function"
    }
  ],
  "bytecode": "0x6080604052348015600f57600080fd5b50600080546001600160a01b0319163317905561226a806100316000396000f3fe6080604052600436106101355760003560e01c80636ebd4643116100ab578063b9cc16141161006f578063b9cc161414610490578063beebc5da146104b0578063c374f057146104c3578063e1416f90146104e3578063e7f7494914610503578063f95597741461051657600080fd5b80636ebd4643146103e35780636f7bc9be146103f85780637bf69ca9146104185780638da5cb5b14610438578063ab537c3d1461047057600080fd5b8063401b2168116100fd578063401b2168146102f257806341acac2614610323578063536954e41461034357806359fd9e51146103655780635b3f9441146103925780636844e85a146103cd57600080fd5b80632871661d1461013a57806329a566d2146102045780632c61f83e14610226578063317debf5146102535780633f7ced8314610273575b600080fd5b34801561014657600080fd5b506101b1610155366004611b9b565b600090815260056020819052604090912080546001820154600283015460038401546004850154958501546006860154600787015460099097015495986001600160a01b0390951697939692959394919390929160ff90911690565b60408051998a526001600160a01b0390981660208a0152968801959095526060870193909352608086019190915260a085015260c084015260e08301521515610100820152610120015b60405180910390f35b34801561021057600080fd5b5061022461021f366004611c59565b610538565b005b34801561023257600080fd5b50610246610241366004611b9b565b6106e6565b6040516101fb9190611ced565b34801561025f57600080fd5b5061022461026e366004611b9b565b610755565b34801561027f57600080fd5b506102c561028e366004611b9b565b6000908152600560205260409020600a810154600b820154600d830154600e840154600f850154600c909501549395929491939092565b604080519687526020870195909552938501929092526060840152608083015260a082015260c0016101fb565b3480156102fe57600080fd5b5061031261030d366004611d55565b610a07565b6040516101fb959493929190611dc0565b34801561032f57600080fd5b5061022461033e366004611e22565b610c58565b34801561034f57600080fd5b50610358610e85565b6040516101fb9190611e86565b34801561037157600080fd5b50610385610380366004611b9b565b6111e7565b6040516101fb9190611f53565b34801561039e57600080fd5b506103bf6103ad366004611d55565b60076020526000908152604090205481565b6040519081526020016101fb565b3480156103d957600080fd5b506103bf60045481565b3480156103ef57600080fd5b50610224611282565b34801561040457600080fd5b50610312610413366004611d55565b61139c565b34801561042457600080fd5b506103bf610433366004611f66565b6113b7565b34801561044457600080fd5b50600054610458906001600160a01b031681565b6040516001600160a01b0390911681526020016101fb565b34801561047c57600080fd5b506103bf61048b366004611f92565b6113e4565b34801561049c57600080fd5b506104586104ab366004611b9b565b611424565b6102246104be366004611f92565b61144e565b3480156104cf57600080fd5b506103bf6104de366004611b9b565b6116cc565b3480156104ef57600080fd5b506102246104fe366004611c59565b6116ed565b610224610511366004611b9b565b611848565b34801561052257600080fd5b5061052b611982565b6040516101fb9190611fb4565b3360009081526001602052604090206004015460ff16156105a05760405162461bcd60e51b815260206004820152601960248201527f4661726d657220616c726561647920726567697374657265640000000000000060448201526064015b60405180910390fd5b6040518060a0016040528084815260200183815260200184846040516020016105ca929190611fec565b60408051601f198184030181529181529082526020828101859052600192820183905233600090815292905290208151819061060690826120a3565b506020820151600182019061061b90826120a3565b506040820151600282019061063090826120a3565b506060820151600382019061064590826120a3565b50608091909101516004909101805460ff1916911515919091179055600280546001810182556000919091527f405787fa12a823e0f2b7631cc41b3ba8828b3321ca811111fa75cd3aa3bb5ace018054336001600160a01b031990911681179091556040517f851322da2e414e9965ce5ecef6890861b23f27fe84bd9646b7de8aea70efcb56906106d99086908690612162565b60405180910390a2505050565b60008181526005602090815260409182902060100180548351818402810184019094528084526060939283018282801561074957602002820191906000526020600020905b81546001600160a01b0316815260019091019060200180831161072b575b50505050509050919050565b6000818152600560205260409020805482146107a45760405162461bcd60e51b815260206004820152600e60248201526d1190549357d393d517d193d5539160921b6044820152606401610597565b600981015460ff166107e55760405162461bcd60e51b815260206004820152600a6024820152691393d517d1955391115160b21b6044820152606401610597565b80600d015481600f01541061082b5760405162461bcd60e51b815260206004820152600c60248201526b10531317d49153115054d15160a21b6044820152606401610597565b600f810154600e82015460009061084290836121a6565b83600c015461085191906121bd565b90508042101561088f5760405162461bcd60e51b8152602060048201526009602482015268544f4f5f4541524c5960b81b6044820152606401610597565b600083600d015484600201546108a591906121d0565b9050600084600d01548460016108bb91906121bd565b146108c657816108cc565b84600a01545b9050600185600f0160008282546108e391906121bd565b925050819055508085600a0160008282546108fe91906121f2565b909155505060018501546040516000916001600160a01b03169083908381818185875af1925050503d8060008114610952576040519150601f19603f3d011682016040523d82523d6000602084013e610957565b606091505b50509050806109985760405162461bcd60e51b815260206004820152600d60248201526c1514905394d1915497d1905253609a1b6044820152606401610597565b600f860154600a870154604080519283526020830185905282015287907f5e85b5843cdd9b3b8d34f7241a238e9638486675925145ab71603fdbdb58c37c9060600160405180910390a285600d015486600f0154036109fe5760098601805460ff191690555b50505050505050565b600160205260009081526040902080548190610a2290612028565b80601f0160208091040260200160405190810160405280929190818152602001828054610a4e90612028565b8015610a9b5780601f10610a7057610100808354040283529160200191610a9b565b820191906000526020600020905b815481529060010190602001808311610a7e57829003601f168201915b505050505090806001018054610ab090612028565b80601f0160208091040260200160405190810160405280929190818152602001828054610adc90612028565b8015610b295780601f10610afe57610100808354040283529160200191610b29565b820191906000526020600020905b815481529060010190602001808311610b0c57829003601f168201915b505050505090806002018054610b3e90612028565b80601f0160208091040260200160405190810160405280929190818152602001828054610b6a90612028565b8015610bb75780601f10610b8c57610100808354040283529160200191610bb7565b820191906000526020600020905b815481529060010190602001808311610b9a57829003601f168201915b505050505090806003018054610bcc90612028565b80601f0160208091040260200160405190810160405280929190818152602001828054610bf890612028565b8015610c455780601f10610c1a57610100808354040283529160200191610c45565b820191906000526020600020905b815481529060010190602001808311610c2857829003601f168201915b5050506004909301549192505060ff1685565b3360009081526001602052604090206004015460ff16610cb25760405162461bcd60e51b815260206004820152601560248201527411985c9b595c881b9bdd081c9959da5cdd195c9959605a1b6044820152606401610597565b600085118015610cc25750600084115b8015610cce5750600083115b8015610cda5750600082115b610d265760405162461bcd60e51b815260206004820152601760248201527f496e76616c6964206661726d20706172616d65746572730000000000000000006044820152606401610597565b6000610d3286866113e4565b90506000610d4085886121d0565b600480549192506000919082610d5583612205565b9091555060008181526005602081905260409091208281556001810180546001600160a01b03191633179055600281018b9055600381018a9055600481018690559081018890556006810184905590915060088101610db486826120a3565b5060098101805460ff191690556000600a8201819055600b8201879055600c8201819055600f820155610de6866119da565b600d830155600e820155600680546001810182556000919091527ff652222313e28459528d920b65115c16c04f3efc82aaedc97be59f3f377c0d3f01829055604080518381523360208201529081018a9052606081018990526080810185905260a081018790527f51e07fb38ff3282be5c5a25bb4097bc0b78ccdbf629103926bf82d7f8ea3715b9060c00160405180910390a1505050505050505050565b60025460609060009067ffffffffffffffff811115610ea657610ea6611bb4565b604051908082528060200260200182016040528015610f0b57816020015b610ef86040518060a00160405280606081526020016060815260200160608152602001606081526020016000151581525090565b815260200190600190039081610ec45790505b50905060005b6002548110156111e1576001600060028381548110610f3257610f3261221e565b60009182526020808320909101546001600160a01b031683528201929092526040908101909120815160a08101909252805482908290610f7190612028565b80601f0160208091040260200160405190810160405280929190818152602001828054610f9d90612028565b8015610fea5780601f10610fbf57610100808354040283529160200191610fea565b820191906000526020600020905b815481529060010190602001808311610fcd57829003601f168201915b5050505050815260200160018201805461100390612028565b80601f016020809104026020016040519081016040528092919081815260200182805461102f90612028565b801561107c5780601f106110515761010080835404028352916020019161107c565b820191906000526020600020905b81548152906001019060200180831161105f57829003601f168201915b5050505050815260200160028201805461109590612028565b80601f01602080910402602001604051908101604052809291908181526020018280546110c190612028565b801561110e5780601f106110e35761010080835404028352916020019161110e565b820191906000526020600020905b8154815290600101906020018083116110f157829003601f168201915b5050505050815260200160038201805461112790612028565b80601f016020809104026020016040519081016040528092919081815260200182805461115390612028565b80156111a05780601f10611175576101008083540402835291602001916111a0565b820191906000526020600020905b81548152906001019060200180831161118357829003601f168201915b50505091835250506004919091015460ff16151560209091015282518390839081106111ce576111ce61221e565b6020908102919091010152600101610f11565b50919050565b600081815260056020526040902060080180546060919061120790612028565b80601f016020809104026020016040519081016040528092919081815260200182805461123390612028565b80156107495780601f1061125557610100808354040283529160200191610749565b820191906000526020600020905b8154815290600101906020018083116112635750939695505050505050565b33600090815260076020526040902054806112c85760405162461bcd60e51b81526020600482015260066024820152654e6f20524f4960d01b6044820152606401610597565b336000818152600760205260408082208290555190919083908381818185875af1925050503d8060008114611319576040519150601f19603f3d011682016040523d82523d6000602084013e61131e565b606091505b505090508061135f5760405162461bcd60e51b815260206004820152600d60248201526c15d2551211149055d7d1905253609a1b6044820152606401610597565b60408051338152602081018490527f7673c163b255f2814a223d6a2f3cfeb2b560e8404d4be007a82568f316631039910160405180910390a15050565b600360205260009081526040902080548190610a2290612028565b60008281526005602090815260408083206001600160a01b03851684526011019091529020545b92915050565b600060646113f284846121a6565b6113fc91906121d0565b60646114098560056121a6565b61141391906121d0565b61141d91906121bd565b9392505050565b6002818154811061143457600080fd5b6000918252602090912001546001600160a01b0316905081565b600082815260056020908152604080832033845260039092529091206004015460ff166114bd5760405162461bcd60e51b815260206004820152601760248201527f496e766573746f72206e6f7420726567697374657265640000000000000000006044820152606401610597565b600082116115025760405162461bcd60e51b81526020600482015260126024820152710536861726573206d757374206265203e20360741b6044820152606401610597565b806002015481600701541061154d5760405162461bcd60e51b815260206004820152601160248201527011985c9b48199d5b1b1e48199d5b991959607a1b6044820152606401610597565b600081600601548361155f91906121a6565b90508034146115a45760405162461bcd60e51b8152602060048201526011602482015270125b98dbdc9c9958dd081c185e5b595b9d607a1b6044820152606401610597565b33600090815260118301602052604081205490036115e457601082018054600181018255600091825260209091200180546001600160a01b031916331790555b336000908152601183016020526040812080548592906116059084906121bd565b925050819055508082600701600082825461162091906121bd565b925050819055508082600a01600082825461163b91906121bd565b9091555050600282015460078301541080159061165d5750600982015460ff16155b1561167f5760098201805460ff1916600117905542600c8301556000600f8301555b60408051858152336020820152908101849052606081018290527fce81571c08c76465bdf390ad1abe80af8c51c6c4566e3485f9395f13d5ad63289060800160405180910390a150505050565b600681815481106116dc57600080fd5b600091825260209091200154905081565b3360009081526003602052604090206004015460ff16156117505760405162461bcd60e51b815260206004820152601b60248201527f496e766573746f7220616c7265616479207265676973746572656400000000006044820152606401610597565b6040518060a00160405280848152602001838152602001848460405160200161177a929190611fec565b60408051601f19818403018152918152908252602082810185905260019282019290925233600090815260039092529020815181906117b990826120a3565b50602082015160018201906117ce90826120a3565b50604082015160028201906117e390826120a3565b50606082015160038201906117f890826120a3565b50608091909101516004909101805460ff191691151591909117905560405133907f23715835815255f2930b08e90f722a84109f8c05283b3833772b7f7db012706f906106d99086908690612162565b60008181526005602052604090206001015481906001600160a01b031633146118b35760405162461bcd60e51b815260206004820152601b60248201527f4e6f7420746865206661726d6572206f662074686973206661726d00000000006044820152606401610597565b6000828152600560205260409020346118fb5760405162461bcd60e51b815260206004820152600a6024820152694d75737420726570617960b01b6044820152606401610597565b601081015461193b5760405162461bcd60e51b815260206004820152600c60248201526b4e6f20696e766573746f727360a01b6044820152606401610597565b604080518481523460208201527fd3337f372235c0c137836a45251cd21fba324e7ef27c7acc5ac12451491793b9910160405180910390a161197d8134611a55565b505050565b606060068054806020026020016040519081016040528092919081815260200182805480156119d057602002820191906000526020600020905b8154815260200190600101908083116119bc575b5050505050905090565b60008060b48310611a095762278d009150601e6119f884601d6121bd565b611a0291906121d0565b9050611a44565b603c8310611a2457621275009150600e6119f884600d6121bd565b62093a8091506007611a378460066121bd565b611a4191906121d0565b90505b80600003611a50575060015b915091565b6010820154600090815b81811015611b94576000856010018281548110611a7e57611a7e61221e565b60009182526020808320909101546001600160a01b031680835260118901909152604082205490925090819003611ab6575050611b8c565b6000876006015482611ac891906121a6565b9050600088600701548289611add91906121a6565b611ae791906121d0565b9050611af46001876121f2565b8503611b0b57611b0487896121f2565b9050611b18565b611b1581886121bd565b96505b6001600160a01b03841660009081526007602052604081208054839290611b409084906121bd565b9091555050604080516001600160a01b0386168152602081018390527f02c4f8aabccd951c1955bc45fa58e2a2983d5a15192e70e83221b9cb32f49273910160405180910390a1505050505b600101611a5f565b5050505050565b600060208284031215611bad57600080fd5b5035919050565b634e487b7160e01b600052604160045260246000fd5b600082601f830112611bdb57600080fd5b813567ffffffffffffffff811115611bf557611bf5611bb4565b604051601f8201601f19908116603f0116810167ffffffffffffffff81118282101715611c2457611c24611bb4565b604052818152838201602001851015611c3c57600080fd5b816020850160208301376000918101602001919091529392505050565b600080600060608486031215611c6e57600080fd5b833567ffffffffffffffff811115611c8557600080fd5b611c9186828701611bca565b935050602084013567ffffffffffffffff811115611cae57600080fd5b611cba86828701611bca565b925050604084013567ffffffffffffffff811115611cd757600080fd5b611ce386828701611bca565b9150509250925092565b602080825282518282018190526000918401906040840190835b81811015611d2e5783516001600160a01b0316835260209384019390920191600101611d07565b509095945050505050565b80356001600160a01b0381168114611d5057600080fd5b919050565b600060208284031215611d6757600080fd5b61141d82611d39565b60005b83811015611d8b578181015183820152602001611d73565b50506000910152565b60008151808452611dac816020860160208601611d70565b601f01601f19169290920160200192915050565b60a081526000611dd360a0830188611d94565b8281036020840152611de58188611d94565b90508281036040840152611df98187611d94565b90508281036060840152611e0d8186611d94565b91505082151560808301529695505050505050565b600080600080600060a08688031215611e3a57600080fd5b85359450602086013593506040860135925060608601359150608086013567ffffffffffffffff811115611e6d57600080fd5b611e7988828901611bca565b9150509295509295909350565b6000602082016020835280845180835260408501915060408160051b86010192506020860160005b82811015611f4757603f198786030184528151805160a08752611ed460a0880182611d94565b905060208201518782036020890152611eed8282611d94565b91505060408201518782036040890152611f078282611d94565b91505060608201518782036060890152611f218282611d94565b608093840151151598909301979097525094506020938401939190910190600101611eae565b50929695505050505050565b60208152600061141d6020830184611d94565b60008060408385031215611f7957600080fd5b82359150611f8960208401611d39565b90509250929050565b60008060408385031215611fa557600080fd5b50508035926020909101359150565b602080825282518282018190526000918401906040840190835b81811015611d2e578351835260209384019390920191600101611fce565b60008351611ffe818460208801611d70565b600160fd1b908301908152835161201c816001840160208801611d70565b01600101949350505050565b600181811c9082168061203c57607f821691505b6020821081036111e157634e487b7160e01b600052602260045260246000fd5b601f82111561197d57806000526020600020601f840160051c810160208510156120835750805b601f840160051c820191505b81811015611b94576000815560010161208f565b815167ffffffffffffffff8111156120bd576120bd611bb4565b6120d1816120cb8454612028565b8461205c565b6020601f82116001811461210557600083156120ed5750848201515b600019600385901b1c1916600184901b178455611b94565b600084815260208120601f198516915b828110156121355787850151825560209485019460019092019101612115565b50848210156121535786840151600019600387901b60f8161c191681555b50505050600190811b01905550565b6040815260006121756040830185611d94565b82810360208401526121878185611d94565b95945050505050565b634e487b7160e01b600052601160045260246000fd5b80820281158282048414176113de576113de612190565b808201808211156113de576113de612190565b6000826121ed57634e487b7160e01b600052601260045260246000fd5b500490565b818103818111156113de576113de612190565b60006001820161221757612217612190565b5060010190565b634e487b7160e01b600052603260045260246000fdfea2646970667358221220b1fdd6331b81909851307af851c06a154c779f28c1829a5ae53e14e7bb3217f864736f6c634300081c0033",
  "linkReferences": {},
  "deployedLinkReferences": {}
}